:020000040000fa
:080000000001040000000000f3
:020000040000fa
:10000800c4010000940100009a010000a001000052
:10001800a6010000c4010000c4010000c4010000e2
:10002800c4010000c4010000c4010000c4010000b4
:10003800c4010000c4010000c4010000c4010000a4
:10004800c4010000c4010000c4010000c401000094
:10005800c4010000c4010000c4010000c401000084
:10006800c4010000c4010000c4010000c401000074
:10007800c4010000c4010000c4010000c401000064
:10008800c4010000c4010000c4010000c401000054
:10009800c4010000c4010000c4010000c401000044
:1000a800c4010000c4010000c4010000c401000034
:1000b800c4010000c4010000c4010000c401000024
:1000c800c4010000c4010000c4010000c401000014
:1000d800c4010000c4010000c4010000c401000004
:1000e800c4010000c4010000c4010000c4010000f4
:0800f800c4010000c401000076
:020000040000fa
:10010800c4010000ac010000b2010000b801000009
:10011800be010000c4010000c4010000c4010000c9
:10012800c4010000c4010000c4010000c4010000b3
:10013800c4010000c4010000c4010000c4010000a3
:10014800c4010000c4010000c4010000c401000093
:10015800c4010000c4010000c4010000c401000083
:10016800c4010000c4010000c4010000c401000073
:10017800c4010000c4010000c4010000c401000063
:10018800c4010000c4010000c4010000c401000053
:10019800c4010000c4010000c4010000c401000043
:1001a800c4010000c4010000c4010000c401000033
:1001b800c4010000c4010000c4010000c401000023
:1001c800c4010000c4010000c4010000c401000013
:1001d800c4010000c4010000c4010000c401000003
:1001e800c4010000c4010000c4010000c4010000f3
:0801f800c4010000c401000075
:020000040000fa
:100200000f8020000e7f22000e01880000000000f9
:1002100000012000200288000c000700c01d200003
:100220000100200011000700000020000000e00095
:10023000020032000000020000000000c8010200bd
:10024000000000000040da000000fe004440a90069
:10025000000020000000e000030032000000200049
:10026000a00188004440a800000006009101880019
:10027000800078000000eb0015003700e2804000ad
:1002800032a0b4009101ba00e280400032a0b40074
:100290009102ba00e280400032a0b4000002eb00fc
:1002a000472bde00f507b200602ce10004003a00a5
:1002b0000059eb008301e900fdff3e000400370018
:1002c0006128e100010032000082eb000400070019
:1002d0001101ba000200e000e8ff3a000000060049
:1002e0003159ba008301e9000c0032002159ba00eb
:1002f0008301e900080032000400e00003003a0036
:10030000e280400032a0b400f5ff370011d9ba00f6
:100310008301e900faff3a008100e800e180400033
:1003200032a0b400000006000000fa008020a900fe
:10033000ffff37000000fa008060a900ffff3700d0
:100340000000fa008040a900ffff37000000fa001b
:100350008080a900ffff37000000fa008020a9007c
:10036000ffff37000000fa008060a900ffff3700a0
:100370000000fa008040a900ffff37000000fa00eb
:100380008080a900ffff37000000fa00ffff370060
:020000040000fa
:100390000000fa000200070004000700ffff37001a
:1003a0000000fa000080fa00000006000000fa00d9
:0803b0000080fa0000000600c5
:020000040000fa
:0403b8000000000041
:00000001FF
